:0400000057EF00F0C6
:060008003F822CED04F024
:100018003F80D8CF0FF0E8CF10F0E0CF11F0FACF43
:1000280012F0FBCF13F0E9CF14F0EACF15F0E1CFCF
:1000380016F0E2CF17F0D9CF18F0DACF19F0F3CFD6
:100048001AF0F4CF1BF0F6CF1CF0F7CF1DF0F8CF65
:100058001EF0F5CF1FF0F29EA1B2A192F28E1FC042
:10006800F5FF1EC0F8FF1DC0F7FF1CC0F6FF1BC040
:10007800F4FF1AC0F3FF19C0DAFF18C0D9FF17C080
:10008800E2FF16C0E1FF15C0EAFF14C0E9FF13C084
:10009800FBFF12C0FAFF11C0E0FF10C0E8FF0FC05D
:0A00A800D8FF3F9010000CEF05F0A8
:100600000001000A006400E8031027656E7465723B
:1006100020736C656570206D6F64652025640A0D1C
:100620000050726F6772616D2073746172740A0D8D
:100630000000300E336E000E346E8CD0250E39184B
:10064000D8B409D02CC0D9FF2DC0DAFF39C0DFFFE4
:100650002C4A2D2A7FD0000E356E2EC0F6FF2FC0FB
:10066000F7FF2E4A2F2A0800F5CF39F03950000A3B
:10067000D8B47CD0640AD8B403D00D0AD8A46AD008
:1006800033C0D9FF34C0DAFFDECF37F0DDCF38F02A
:10069000020E3326000E342238AE06D0030E351279
:1006A000376C381ED8B0382A010E396E050E39184D
:1006B000D8B412D03950020D010EF324F66E060E96
:1006C000F420F76E0900F550375C0900F5503858F2
:1006D000D8A002D0392AEAD735C032F0030E32163C
:1006E000D8B408D02CC0D9FF2DC0DAFF2D0EDF6E94
:1006F0002C4A2D2A39C036F029D03650020D010E71
:10070000F324F66E060EF420F76E0900F5CF22F002
:100710000A00F5CF23F037C020F038C021F06BEC91
:1007200004F020C027F021C028F0000E2A6E0A0E27
:10073000296E94EC04F02750300F396E2CC0D9FF8D
:100740002DC0DAFF39C0DFFF2C4A2D2A36063628A5
:10075000D8A4D3D72EC0F6FF2FC0F7FF2E4A2F2ADA
:100760000800F5CF39F03950D8A468D72CC0D9FF8C
:100770002DC0DAFF000EDF6E1200D39ED388D38A1D
:10078000D38C030ED312D3A4FED7000E936E000EAB
:100790008A6E9482000E216E330E206E000E236E40
:1007A000000E226E000E256E010E246E000E276EC6
:1007B000000E266EF1EC04F0BA50F00B0509BA6E8B
:1007C000B19EB19CB186300EB112B192A292A280BC
:1007D000A082A080D08EF28EF28C150E3B6E4B0E56
:1007E0003A6EBE0EE82EFED73A2EFCD73B2EFAD735
:1007F00000D0000E2C6E010E2D6E210E2E6E060EF8
:100800002F6E19EC03F0000E216E010E226ED6EC55
:1008100004F0000E3C6EB180B5EC04F03C2A000EF2
:100820002C6E010E2D6E0B0E2E6E060E2F6E3CC022
:1008300030F0316A19EC03F0000E216E010E226EC9
:10084000D6EC04F0020E3C18D8A4E6D7000E8A6E4F
:10085000000E3C6E0300E0D70600FACF01F0FBCF9C
:1008600002F0E9CF03F0EACF04F0E1CF05F0E2CFE8
:1008700006F0D9CF07F0DACF08F0F3CF09F0F4CFC4
:100880000AF0F6CF0BF0F7CF0CF0F8CF0DF0F5CF64
:100890000EF0F29EA1B0A190F28E0EC0F5FF0DC039
:1008A000F8FF0CC0F7FF0BC0F6FF0AC0F4FF09C049
:1008B000F3FF08C0DAFF07C0D9FF06C0E2FF05C09A
:1008C000E1FF04C0EAFF03C0E9FF02C0FBFF01C073
:1008D000FAFF3F921100000E256E000E246E22508A
:1008E0002310D8B41CD0010E266E04D0D890223626
:1008F0002336262A23AEFAD7D8902436253622501E
:10090000205C23502158D8A005D02250205E2350CF
:10091000215A2480D89023322232262EEDD724C0AB
:1009200020F025C021F0120029502A10D8B418D088
:10093000010E2B6E04D0D89029362A362B2A2AAEE7
:10094000FAD72950275C2A502858D8A004D029501B
:10095000275E2A50285AD8902A3229322B2EF1D7D6
:1009600027C027F028C028F01200010E236E000EC9
:10097000226E070E226401D0120023C08AFF7F0E70
:10098000236402D0010E03D0020E2302F350236E23
:10099000030E216E080E206E770EE82EFED7202E55
:1009A000FCD7212EFAD700F0222AE3D7000E236EBF
:1009B0000CD02350010DF3502124D96EF450222085
:1009C000DA6EDF501FEC05F0232A2350010DF3509F
:1009D0002124D96EF4502220DA6EDF50D8B41200F0
:1009E000E8D7948E948C2150B06E20C0AFFFAB88B6
:1009F000AB8E26B002D0B89601D0B88622B002D015
:100A0000AC9801D0AC8824B002D0AC9401D0AC84B6
:100A1000AC8A9F8A9D8A120001EE00F011EE00F070
:100A2000EE6AE550E150FCE1E250FAE13E6A3D6ACF
:100A30003F903F92000EF86E0001BDEF03F0206E74
:0E0A400020C0ADFF01D000F0ACB21200FCD718
:020000040020DA
:08000000FFFFFFFFFFFFFFFF00
:020000040030CA
:0E000000FF08191EFF8181FF0FC00FE00F40A7
:00000001FF
